0000000001JOHN                SMITH                         123 MAIN STREET                         NEW YORK                 NY100015551234567123456789198505151C00001500000S0050000019850515202401150A
0000000002JANE                DOE                           456 OAK AVENUE                          LOS ANGELES              CA900125559876543987654321199003201S00025000000S0100000019900320202401100A
0000000003ROBERT              JOHNSON                       789 PINE ROAD                           CHICAGO                  IL606015553334444111222333198712101C00003750000S0075000019871210202401050A
0000000004MARIA               GARCIA                        321 ELM STREET                          HOUSTON                  TX770015557778888222333444199506151M00050000000S0150000019950615202401200A
0000000005WILLIAM             BROWN                         654 MAPLE DRIVE                         PHOENIX                  AZ850015552223333333444555199809201C00002250000S0050000019980920202401080A
